:100000000C948A040C94A7040C94A7040C94A704E1
:100010000C94A7040C94A7040C94A7040C94A704B4
:100020000C94A7040C94A7040C941D0B0C94850B42
:100030000C94A7040C94A7040C94A7040C94A70494
:100040000C94A7040C94A7040C94A7040C94A70484
:100050000C94A7040C94A7040C94A7040C94A70474
:100060000C94A7040C94A7040C94A7040C94A70464
:100070000C94A7040C94A7040C94A7040C94A70454
:100080000C94A7040C94A7040C94A7040C94A70444
:100090000C94A7040C94A7040C94A7040C94A70434
:1000A0000C94A7040C94A7040C94A704050109055B
:1000B000A1010901A1008501050175109506150032
:1000C00026007D09300931093309340935093281A7
:1000D00002C0A1000509150025017501951019013F
:1000E0002910750195108102C0050F0992A10285A2
:1000F00002099F09A009A509A6150025013500459B
:100100000175019504810295047501810309941517
:10011000002501350045017501950181020922156F
:1001200001252835014528750795018102C009215F
:10013000A1028501092215012528350145287508E8
:10014000950191020925A1020926092709300931E3
:100150000932093309340940094109420943092890
:10016000250C15013501450C750895019100C00954
:100170005009540951150026FF7F350046FF7F6660
:10018000031055FD75109503910255006600000996
:1001900052150026FF00350046102775089501917D
:1001A0000209531501250835014508750895019187
:1001B000020955A102050109300931150025017513
:1001C0000195029102C0050F09569501910295050E
:1001D00091030957A1020B01000A000B02000A005B
:1001E00066140055FE150026FF00350047A08C0060
:1001F000006600007508950291025500660000C077
:10020000050F09A766031055FD150026FF7F350071
:1002100046FF7F7510950191026600005500C005EC
:100220000F095AA102850209221501252835014529
:1002300028750895019102095B095D150026FF00EC
:10024000350046102795029102095C095E6603108D
:1002500055FD26FF7F46FF7F751091024500660021
:10026000005500C0095FA102850309221501252858
:1002700035014528750895019102092315002501CE
:10028000350045017504950191020958A1020B0141
:10029000000A000B02000A00750295029102C015C7
:1002A00080257F36F0D846102709607508950191A2
:1002B0000236F0D8461027096109629502910215AD
:1002C0000026FF003500461027096309647508956C
:1002D000029102096546102795019102C0096EA19D
:1002E0000285040922150125283501452875089540
:1002F0000191020970150026FF0035004610277590
:100300000895019102096F1580257F36F0D84610B7
:100310002795019102097166140055FE150026FF0C
:1003200000350047A08C00009102097226FF7F462D
:10033000FF7F66031055FD75109501910266000060
:100340005500C00973A1028505092215012528352C
:1003500001452875089501910209701601FF26FFD5
:100360000036F0D8461027751095019102C0097427
:10037000A1028506092215012528350145287508A1
:1003800095019102097509761580257F36F0D846CA
:100390001027750895029102C00968A10285070916
:1003A0002215012528350145287508950191020976
:1003B0006C15002610273500461027751095019101
:1003C0000209691581257F350046FF007508950CE7
:1003D000920201C00966A1028508050109300931B0
:1003E0001581257F350046FF00750895029102C0F2
:1003F000050F0977A102850A092215012528350173
:1004000045287508950191020978A1020979097AB0
:10041000097B15012503750895019100C0097C151C
:100420000026FF00350046FF009102C00990A1029E
:10043000850B0922252815013501452875089501E8
:100440009102C00996A102850C099709980999099A
:100450009A099B099C15012506750895019100C014
:10046000097DA102850D097E150026FF0035004695
:100470001027750895019102C0096BA102850E092C
:100480002215012528350145287508950191020995
:100490006D150026FF00350046FF00750895019197
:1004A00002095166031055FD150026FF7F350046F1
:1004B000FF7F7510950191025500660000C009ABE1
:1004C000A10285090925A102092609270930093158
:1004D000093209330934094009410942094309280D
:1004E000250C15013501450C75089501B100C005B5
:1004F00001093B150026FF01350046FF01750A95ED
:1005000001B1027506B101C0050F0989A10285027A
:100510000922252815013501452875089501B102E4
:10052000098BA102098C098D098E2503150135015E
:10053000450375089501B100C009AC150027FFFF00
:100540000000350047FFFF000075109501B100C0A5
:10055000097FA102850309807510950115003500FA
:1005600027FFFF000047FFFF0000B102098326FFBD
:100570000046FF0075089501B10209A909AA750195
:1005800095021500250135004501B102750695015A
:10059000B103C0C00600FF0901A101150026FF003C
:1005A0007508953F0901B100C009023B0002010036
:1005B0008019090400000103000000092101010065
:1005C0000122170007058103100001090401000141
:1005D0000300000009210101000122150007058226
:1005E0000340000105010906A101050795037508EF
:1005F000150025E7190029E78100C009025400030E
:100600000100801909040000010300000009210114
:1006100001000122E804070581031000010904011B
:100620000001030000000921010100012217000759
:100630000582031000010904020001030000000903
:100640002101010001221500070583034000014735
:1006500043204B422B4A5320746F2055534220763F
:10066000332E36004743204B4220746F20555342AF
:100670002076332E36004B4220746F205553422093
:1006800076332E3600090254000301008019090454
:100690000000010300000009210101000122E8041B
:1006A0000705810310000109040100010300000097
:1006B00009210101000122E804070582031000015D
:1006C00009040200010300000009210101000122C8
:1006D0001500070583034000014475616C204761E4
:1006E0006D656375626520746F20555342207633C3
:1006F0002E36004475616C204E363420746F2055C0
:1007000053422076332E36004475616C2047432FC8
:100710004E363420746F205553422076332E3600E7
:1007200047616D656375626520746F205553422083
:1007300076332E36004E363420746F2055534220C7
:1007400076332E360047432F4E363420746F2055B3
:1007500053422076332E360009023B00020100800E
:100760001909040000010300000009210101000132
:1007700022E80407058103100001090401000103B8
:100780000000000921010100012215000705820374
:10079000400001434647204550206661696C0D0AC0
:1007A00000496E76616C69642065702073697A65B2
:1007B0000D0A00743A20253032782C2072713A20CC
:1007C0003078253032782C2076616C3A2025303410
:1007D000780D0A00556E6B6E6F776E2073747269B8
:1007E0006E672069640D0A00556E68616E646C6501
:1007F0006420636C617373206252657175657374F4
:10080000203078253032780A000D0A002530325821
:100810002000556E68616E646C656420636F6E7451
:10082000726F6C207772697465205B25645D203A75
:10083000200001000100020002000010040010006E
:100840000800004010000020200008000001040003
:1008500080000008000400040008000100100002ED
:100860000020000000000080010000400200002085
:1008700004000010080020001000100020000800F4
:100880004000040080000200000101000002000896
:100890000004000400080002001000010020000015
:1008A000000039633365613862382D373533662D82
:1008B000313165352D613064632D303031626663CE
:1008C000613363353933000000064A074D084B0990
:1008D0004E0A47342D352E3689372F39333A34387E
:1008E000303B323C363D373E383F874C294D494EF0
:1008F0004C4F35502A512B5339588B592C5A8A5BFF
:10090000885C505D515E525F4F612854E155E55659
:10091000E057E60011241FBECFEFDAE0DEBFCDBF07
:1009200012E0A0E0B1E0E2EBF0E402C005900D922D
:10093000AC32B107D9F713E0ACE2B2E001C01D92CE
:10094000A63DB107E1F70E944E070C9457200C9486
:10095000000015B88FEF84B98CEF87B918B81BB8B1
:1009600080E78AB9E1E6F0E080E8808310821092A7
:100970006400109265000895E7E3F2E080919B0324
:10098000809337021092380280919C038093390241
:10099000138280919D0380933B02158280919E0378
:1009A00080933D02178280919F0380933F021186BE
:1009B0008091A0038093410213861092440210920A
:1009C0004302F0932202E0932102089580933002C3
:1009D0000895FC018091A103823191F0833128F4C4
:1009E000882391F08230A9F407C0843149F0843122
:1009F00018F0853171F408C082E0808383E106C07D
:100A000082E1808384E102C0108285E1818382E0FB
:100A10000895108281E0818382E0828380E1838374
:100A200081E1848382E1858383E1868384E1878316
:100A300088E00895982F823040F481E2989FC001A9
:100A400011248B5B9D4F0E940C0F08950E94A70FED
:100A500008950E94390F08951F93182F0E943C1388
:100A6000E12FF0E0E45DFD4F8083823079F0833048
:100A700018F4813029F407C0833059F0853019F01B
:100A800020E030E009C00E94C31305C00E94241674
:100A900002C00E9427169C01C9011F9108956F9200
:100AA0007F928F929F92AF92BF92CF92DF92EF92FE
:100AB000FF920F931F93DF93CF93CDB7DEB72E979F
:100AC0000FB6F894DEBF0FBECDBF0E94A9040E94EE
:100AD00001170E9454170E947F1A0E94B31A0E94A5
:100AE000701C8091A103833141F1843169F186E763
:100AF00096E00E946A1A87E690E090930B0180933B
:100B00000A0189EA95E090931701809316018BE31F
:100B100090E0909319018093180184EE95E09093F2
:100B200021018093200187E190E090931F01809341
:100B30001E01FF2471E2E72E5AC084E696E00E946F
:100B40006A1A86E690E0D9CF8FE496E00E946A1A8E
:100B500088E690E090930B0180930A018BEF95E07B
:100B6000909317018093160184E590E0909319010A
:100B700080931801E6E3F1E0DF011C978CE00D9013
:100B800001928150E1F7EAE2F1E0DF011C978CE08D
:100B90000D9001928150E1F784EE95E090932D0144
:100BA00080932C0187E190E090932B0180932A01A0
:100BB00083E080931D0182E080931201BACFFE9CF6
:100BC000800111240B5B1D4FC8010E94AC128F2DB8
:100BD00090E0FC01EE0FFF1FE80FF91FEE0FFF1F63
:100BE000EE0FFF1FED5EFE4F128B018BF394809191
:100BF0001201F81620F319821A821B821C82789443
:100C000083E191E00E94D60A0E94B81A1E8641E252
:100C1000A42E3E010894611C711C35E0832E912C9A
:100C20008C0E9D1E0E94771C882311F00E941A17BB
:100C30000E94550A8AE591E00E94DA180E94BC1AC7
:100C4000882371F010E008C01A9DC00111248B5B4D
:100C50009D4F0E940F0F1F5F809112011817A0F384
:100C60008E85813049F0813048F0823009F4A2C08D
:100C7000833009F0DEC0ABC0BB2492C0809130024B
:100C8000882309F0D6C08091A20390E00E94851AC3
:100C90000E94AB1A882309F4CCC0A1E0AE87C9C07A
:100CA000CB2CDD248601000F111F060D171DF80146
:100CB00080819181892B81F48B2D0E942C05FC0170
:100CC000D8018D939C93009739F00680F781E02D31
:100CD000309711F08B2D09958601000F111F060D1D
:100CE000171DF801E080F180E114F10409F44EC011
:100CF000D7011296ED91FC9113978B2D0995F60172
:100D0000EF5CFD4F882351F080818F5F80838F31AE
:100D100030F0D8011D921C92108241C01082D70180
:100D20001496ED91FC9115978B2D09958823B9F1B7
:100D3000D7011896ED91FC9119978B2DB401099567
:100D400080911201813051F4BB20A9F485E492E036
:100D5000B4010E943910B2E0BE8721C0823059F43C
:100D6000E1E0BE1641F486E692E0B4010E9439103B
:100D7000F2E0FE8714C0BA9CC00111248B5B9D4F2A
:100D8000B4010E94591082E08E8709C0BA9CC0014C
:100D900011248B5B9D4F60E070E00E945910B3946A
:100DA00080911201B81608F47BCFAE85A13009F00E
:100DB00040C03BC00E94190A8823C9F580911201E6
:100DC0008230B8F10E94F209882389F532C00E946E
:100DD000190A8823B9F080911201813041F485E429
:100DE00092E00E94340F8C010E94090F07C085E435
:100DF00092E00E94340F8C010E94F10EBC01C801E8
:100E00000E94240A80911201823078F00E94F20937
:100E1000882359F086E692E00E94340F8C010E94EC
:100E2000090FBC01C8010E94FD091E8602C0B3E083
:100E3000BE87FF242DC0FA9CC00111248B5B9D4FFF
:100E40000E941B0FE82E0F2D10E0F801ED5CFD4F06
:100E50008081992787FD90952E2D30E0821793078A
:100E6000B1F0F801EE0FFF1FE60DF71D0190F081C4
:100E7000E02D309741F00284F385E02D309719F092
:100E80008F2D6E2D09950D5C1D4FF801E082F394B6
:100E900080911201F81608F0C5CECDCF6F927F92E7
:100EA0008F929F92AF92BF92CF92DF92EF92FF927A
:100EB0000F931F93DF93CF93CDB7DEB72E970FB667
:100EC000F894DEBF0FBECDBF0E94A9040E94011797
:100ED0000E9454170E947F1A0E94B31A0E94701C2D
:100EE0008091A103813159F1823138F48230A9F027
:100EF0008031F1F0813029F409C0823139F1863135
:100F000098F185E497E00E946A1A30C085E397E083
:100F10000E946A1A81E690E006C080E297E00E9493
:100F20006A1A82E690E090930B0180930A011EC03A
:100F300088E097E00E946A1A83E690E00DC083EF94
:100F400096E00E946A1A84E690E006C089ED96E079
:100F50000E946A1A85E690E090930B0180930A0143
:100F600082E08093120102C00E944F05809112011D
:100F7000823009F585E896E0909317018093160179
:100F800084E590E0909319018093180183E08093A9
:100F90001D01E6E3F1E0DF011C978CE00D9001926A
:100FA0008150E1F7EAE2F1E0DF011C978CE00D905F
:100FB00001928150E1F7FF2451E2E52E18C0FE9C1A
:100FC000800111240B5B1D4FC8010E94AC128F2DB4
:100FD00090E0FC01EE0FFF1FE80FF91FEE0FFF1F5F
:100FE000EE0FFF1FED5EFE4F128B018BF39480918D
:100FF0001201F81620F319821A821B821C8278943F
:1010000083E191E00E94D60A0E94B81A1E8621E26E
:10101000A22E4E010894811C911C95E0692E712C22
:101020006C0E7D1E0E94771C882311F00E941A17F7
:101030000E94550A8AE591E00E94DA180E94BC1AC3
:10104000882371F010E008C01A9DC00111248B5B49
:101050009D4F0E940F0F1F5F809112011817A0F380
:101060008E85813049F0813048F0823009F485C0A6
:10107000833009F0B5C08EC0BB2476C080913002A9
:10108000882309F0ADC08091A20390E00E94851AE8
:101090000E94AB1A882309F4A3C0A1E0AE87A0C0C8
:1010A000CB2CDD248601000F111F080D191DF8013E
:1010B00080819181892B81F48B2D0E942C05FC016C
:1010C000D8018D939C93009739F00680F781E02D2D
:1010D000309711F08B2D09958601000F111F080D17
:1010E000191DF801E080F180E114F10499F1D701B4
:1010F0001296ED91FC9113978B2D0995F601EF5CFB
:10110000FD4F882351F080818F5F80838F3130F0D5
:10111000D8011D921C92108226C01082D70114960D
:10112000ED91FC9115978B2D09958823E1F0D7015E
:101130001896ED91FC9119978B2DB3010995BA9CE6
:10114000C00111248B5B9D4FB3010E945910B2E086
:10115000BE8709C0BA9CC00111248B5B9D4F60E023
:1011600070E00E945910B39480911201B81608F4EF
:1011700097CFEE85E130A1F52FC00E94190A882390
:1011800069F580911201823058F10E94F20988239A
:1011900029F526C00E94190A882359F085E492E0B7
:1011A0000E94340F8C010E94F10EBC01C8010E9404
:1011B000240A80911201823078F00E94F20988237B
:1011C00059F086E692E00E94340F8C010E94F10EE5
:1011D000BC01C8010E94FD091E8602C0F3E0FE8723
:1011E000FF242DC0FA9CC00111248B5B9D4F0E94EF
:1011F0001B0FE82E0F2D10E0F801EB5CFD4F8081F6
:10120000992787FD90952E2D30E082179307B1F036
:10121000F801EE0FFF1FE80DF91D0190F081E02DA0
:10122000309741F00284F385E02D309719F08F2D2F
:101230006E2D09950B5C1D4FD801EC92F3948091B3
:101240001201F81608F0EECECDCF0F93FA0180937D
:10125000E900A901E217F30708F4AF01002369F0E0
:10126000FB019B01240F351F04C084918093F10082
:101270003196E217F307C9F70BC0FB019B01240F5E
:10128000351F03C081918093F100E217F307D1F776
:101290000F910895CF92DF92EF92FF920F931F93D9
:1012A000CF93DF936C01122FEA016417750708F4DE
:1012B000EB01EE24FF24B6016E0D7F1DC134D10574
:1012C000C0F080E040E450E020E430E0012F0E94D4
:1012D00025098091E8008E7F8093E8008091E800E6
:1012E00080FFFCCF80E490E0E80EF91EC054D040AF
:1012F000E2CF80E0AE019E01012F0E94250980917E
:10130000E8008E7F8093E8008091E80080FFFCCFAA
:10131000DF91CF911F910F91FF90EF90DF90CF90D1
:101320000895EF92FF920F93CF93DF93E82F7B0105
:10133000EA018093E9008091E80080FF26C088815F
:10134000998197FF06C08091F0008E7F8093F00016
:101350001CC08091E8008E7F8093E800488159810D
:1013600028813981DB016D917C918E2F00E00E94F4
:101370002509F701118210828FEF9FEF99838883EF
:101380008091E8008F778093E800DF91CF910F91F3
:10139000FF90EF900895809164019091650120E0A5
:1013A0008F5F9F4F09F421E0822F08959C014FB772
:1013B00080916401909165018F5F9F4FC9F7F89408
:1013C00030938E0220938D027093650160936401C7
:1013D00083E08093E9008091F00081608093F000C9
:1013E0004FBF0895809162019091630120E08F5F6B
:1013F0009F4F09F421E0822F08959C014FB78091FF
:101400006201909163018F5F9F4FC9F7F894309309
:101410008C0220938B02709363016093620182E0DF
:101420008093E9008091F00081608093F0004FBFCD
:101430000895809160019091610120E08F5F9F4F3E
:1014400009F421E0822F08959C014FB7809160013B
:10145000909161018F5F9F4FC9F7F89430938A0292
:1014600020938902709361016093600181E0809311
:10147000E9008091F00081608093F0004FBF0895F3
:10148000E0EEF0E08081816080831092E200E8ED80
:10149000F0E080818F778083808180628083E7EDB8
:1014A000F0E080818E7F808308958091DC02882324
:1014B00021F0813071F01092DC028091D90080FF20
:1014C00008C08091E0008E7F8093E00081E08093EF
:1014D000DC0208951092E90081E08093EB00109205
:1014E000EC008CE48093F0008091ED0082638093A7
:1014F000ED001092E8008091EE0087FF56C0E09169
:10150000DA02F091DB028285482F50E020E030E0E3
:1015100061E071EC3BC0822F8F5F8093E9006093A4
:10152000EB007093EC006093F00087859089803128
:10153000910589F0813191051CF4089759F50DC08A
:101540008032910521F08034910521F502C080E2BE
:1015500005C080E303C080E101C080E08260809329
:10156000ED001092E8008091EE003C9687FD0CC0E3
:1015700000D083E997E0EDB7FEB7928381830E94A4
:101580004B1D0F900F9008952F5F3F4F2417350785
:1015900014F2089500D081EA97E0EDB7FEB7928388
:1015A00081830E944B1D0F900F90089520E8209397
:1015B000D70020E22093D80021E02093E000109291
:1015C000E2001092E3009093DB028093DA028091B4
:1015D000D8008F778093D8008091D8008062809364
:1015E000D8008091D70081608093D70080E189BDC9
:1015F00089B5826089BD09B400FEFDCF8091D80015
:1016000080688093D8008091D8008F7D8093D80027
:101610008091D80080618093D8008091E000847030
:101620008093E0000E946A0A8091E1008E7F80939F
:10163000E10089E78093E20008951F920F920FB6B0
:101640000F9211241F932F933F934F935F936F93A8
:101650007F938F939F93AF93BF93EF93FF9380916B
:10166000E100182F80FF0DC08091E1008E7F8093F4
:10167000E10081E0809387028091E20080618093A5
:10168000E20014FF10C08091E1008F7E8093E100A2
:1016900080918702882339F0109287028091E200BE
:1016A0008F7E8093E20013FF09C0109287020E9490
:1016B0006A0A8091E100877F8093E10012FF05C0F4
:1016C0008091E1008B7F8093E10015FF05C0809140
:1016D000E1008F7D8093E10016FF05C08091E1005D
:1016E0008F7B8093E100FF91EF91BF91AF919F912C
:1016F0008F917F916F915F914F913F912F911F91AA
:101700000F900FBE0F901F9018951F920F920FB65B
:101710000F9211248F929F92AF92BF92CF92DF923D
:10172000EF92FF920F931F932F933F934F935F93EB
:101730006F937F938F939F93AF93BF93EF93FF9399
:10174000DF93CF93CDB7DEB76297DEBFCDBF809179
:10175000F400982E80FF0AC31092E9008091E800FF
:10176000882E83FF31C23091F2002091F300922F36
:1017700080E0232F30E0282B392B40E050E0BE01E1
:10178000655F7F4F08C08091F100FB01E40FF51FFA
:1017900080834F5F5F4F4217530718F4483051055D
:1017A00091F78091E800877F8093E8008B8587FD23
:1017B00065C090E09C012F7130702115310529F032
:1017C0002130310509F05AC039C08C85853021F0AF
:1017D000893009F06DC01EC02D853E852093E30041
:1017E0008091E80080FFFCCF8091E8008E7F80939D
:1017F000E8008091E80080FFFCCF8091E3008068E2
:101800008093E300232B11F481E001C082E08093F8
:10181000660134C08D8580938802882311F482E0AC
:1018200001C083E0809366018091E80080FFFCCFD7
:101830008091E8008E7F8093E80020C080769070D1
:101840008097B1F52C852930D9F48091E80080FF8C
:10185000FCCF8091E8008E7F8093E800AFE8B2E093
:10186000FE013B9688E001900D928150E1F71092C5
:1018700098021092970281E080939902AA241AC0DC
:1018800000D000D0EDB7FEB7319688EE97E0ADB747
:10189000BEB712969C938E931197228313820E9457
:1018A0004B1DAA24A3940F900F900F900F9002C08D
:1018B000AA24A3948B8587FF59C1282F30E0C90142
:1018C0008F7190708130910509F4B2C0823091051A
:1018D00009F422C1892B09F04BC18C858630A9F00F
:1018E000883009F01AC18091660129893A898330CC
:1018F00031F01B8280E0BE016D5F7F4F03C080E04E
:1019000068E872E041E050E014C12D853E85832FE8
:10191000992782309105A1F083309105F1F001976C
:1019200009F026C1E091DA02F091DB026181728157
:1019300029893A890081017080E042E150E0FAC0D3
:10194000E091DA02F091DB026581768149895A895A
:101950002081227083819481A7C0307021153105C8
:1019600009F449C0E091DA02F091DB02878190E04E
:10197000821793070CF450C01989BA88690108943A
:10198000C108D108CC0CDD1C0084F185E02DEC0DE4
:10199000FD1D0190F081E02D20E030E003C0329683
:1019A0002F5F3F4F80819181892BC9F77901EE0C20
:1019B000FF1C8E2D8E5F898383E08A8380E0BE01C9
:1019C0006F5F7F4F42E050E0212F3B2D00E00E94EF
:1019D0002509212F3B2DE091DA02F091DB020084F2
:1019E000F185E02DEC0DFD1D6081718122503040AC
:1019F00080E0A7019FC084E08F8383E0888789E02F
:101A0000898780E18A8729893A8980E0BE01695FF8
:101A10007F4F44E050E08DC000D084ED97E0EDB7FB
:101A2000FEB7928381830E944B1D0F900F9084C05C
:101A3000C90180769070009721F0809709F098C0D6
:101A400036C08C85882309F46AC0863009F090C0BE
:101A50008E8590E0829709F08BC02F8538890091A0
:101A6000DA021091DB02D8011A968C911A9790E055
:101A70008217930708F47CC0F901EE0FFF1FE20FF5
:101A8000F31FEE0FFF1FEE0FFF1FAE0FBF1FE00F84
:101A9000F11F6385748549895A89F8012081247072
:101AA0001D968D919C911E970E944A0945C08C8578
:101AB000813009F05DC02F853889A091DA02B0919C
:101AC000DB021A968C911A9790E082179307A0F187
:101AD000F901EE0FFF1FE20FF31FEE0FFF1FEE0FD6
:101AE000FF1FEA0FFB1F238934892115310509F4F3
:101AF0003FC081899289BE01655F7F4FAE014D5F16
:101B00005F4FF9010995AC010097B1F06B817C81C1
:101B100029893A8980E00DC08C85882349F51D828A
:101B20001E8229893A8980E0BE016B5F7F4F42E0C7
:101B300050E000E00E942509AA20D1F48091E8003D
:101B40008E7F8093E8008091E80080FF05C080913F
:101B5000E8008E7F8093E8008091E80082FFF3CF59
:101B60008091E8008B7F8093E8002EC0AA2061F16D
:101B70008DB79EB708970FB6F8949EBF0FBE8DBF66
:101B8000EDB7FEB7319683EB97E0ADB7BEB71296CF
:101B90009C938E9311978B85828313828C8584838B
:101BA00015828D859E85978386830E944B1D80912B
:101BB000EB0080628093EB00EDB7FEB738960FB66E
:101BC000F894FEBF0FBEEDBF82FE41C03091F2001F
:101BD0002091F300809199028823A1F1922F80E057
:101BE000632F70E0682B792B809197029091980277
:101BF000860F971F8034910528F5E0919702F091A8
:101C00009802E656FD4F3091F2002091F300922F9A
:101C100080E0232F30E0282B392B40E050E005C036
:101C20008091F10081934F5F5F4F42175307C0F3DC
:101C30008091970290919802680F791F7093980293
:101C4000609397028091E8008B7F8093E80086FE86
:101C50008DC08091E8008F7B8093E800809199028D
:101C6000882309F483C0C0909702D0909802809195
:101C70008F0280768032B1F52091930230919402E8
:101C8000A091DA02B091DB021A968C911A9790E03B
:101C90008217930708F468C0F901EE0FFF1FE20FE7
:101CA000F31FEE0FFF1FEE0FFF1FEA0FFB1FA589AB
:101CB000B6891097B9F0818992896FE872E04AE994
:101CC00052E09601FD010995882331F08091EB00E7
:101CD00080628093EB0048C08091E8008E7F809303
:101CE000E80042C000D000D082E198E0ADB7BEB7B6
:101CF00012969C938E9311971496DC92CE92139722
:101D00000E944B1D00E010E00F900F900F900F907D
:101D10008CE0E82E88E0F82E19C000D000D0EDB796
:101D2000FEB73196ADB7BEB71296FC92EE92119700
:101D3000D801A656BD4F8C91828313820E944B1D01
:101D40000F5F1F4F0F900F900F900F900C151D05F8
:101D500020F300D089E098E0EDB7FEB7928381834D
:101D60000E944B1D0F900F901092990291FE07C098
:101D700081E069E872E040E651E00E94910992FE3C
:101D800007C082E06BE872E042E651E00E949109F0
:101D900093FE07C083E06DE872E044E651E00E94E4
:101DA00091096296DEBFCDBFCF91DF91FF91EF9198
:101DB000BF91AF919F918F917F916F915F914F9163
:101DC0003F912F911F910F91FF90EF90DF90CF9057
:101DD000BF90AF909F908F900F900FBE0F901F906D
:101DE00018958FE090E00895DC0181E08C93FD016F
:101DF00080E090E030E82EE3318301962283329632
:101E000086309105C9F71D961C921D971E961C924F
:101E1000089583E090E00895FC0162830895FC0139
:101E20002FB7F89480859185009719F001979187D5
:101E300080872FBF0895FC018281882311F081E003
:101E400008958181882369F080859185892B49F0E7
:101E5000838187FD03C0848187FF03C081E0808385
:101E600001C01082808108959C01265F3F4FC90107
:101E70000895CF93DF93DC01FB01EA012281838186
:101E800090E08130910521F0039709F05AC01DC000
:101E9000213031F41A96B983A8832FE030E053C083
:101EA000223009F04EC059962C9359975A961C929D
:101EB0005A9717968C9117975B968C935B975996C8
:101EC000B983A88323E030E03EC0223091F45996D4
:101ED0002C93599781E05A968C935A975B968C93E2
:101EE0005B978AE05C968C935C975D968C935D978C
:101EF00013C02330B9F459962C93599791E05A9610
:101F00009C935A975B969C935B978FEF5C968C9310
:101F10005C975D969C935D975996B983A88325E05D
:101F200030E011C0293069F459962C93599781E01B
:101F30005A968C935A975996B983A88322E030E039
:101F400002C020E030E0C901DF91CF910895CF9326
:101F5000DF93FC01EB01DA012115310509F483C09F
:101F60008B8190E08230910509F074C08C918530AE
:101F700021F1863030F4813061F0843009F075C091
:101F800018C08A3021F18C3009F06FC0148213829E
:101F90005FC011968C911197878314969C9114972A
:101FA00080E013962C9130E0822B932B96838583CF
:101FB0005CC012968C91848358C011968C911197B5
:101FC000813009F052C012968C9183834EC0243028
:101FD000310509F048C02581368113968C911397FD
:101FE0004FEF2F3F340741F4882319F090E001961A
:101FF00011C01186108610C090E044E036952795F8
:102000004A95E1F7AC01429FC001439F900D529F5A
:10201000900D11249187808711968C91119790E0F3
:102020008F7790708130910531F081309105ECF01F
:1020300003970297D0F412964C91423031F043301E
:1020400039F0413091F4418310C081E081830DC0AB
:1020500011820BC0039749F48C91893031F41196A9
:102060008C91878302C08FEF01C080E0DF91CF9118
:1020700008950F931F93CF93DF93EC018B011A8682
:102080001B861C86FB018081863071F481810E9451
:10209000821C8A87F80182810E94821C8B87F8014A
:1020A00083810E94821C8C87DF91CF911F910F91B9
:1020B00008957F928F929F92AF92BF92CF92DF92BC
:1020C000EF92FF920F931F93DF93CF93CDB7DEB7BD
:1020D0002C970FB6F894DEBF0FBECDBF6C018B01FD
:1020E0000A960E94F40E0115110509F421C2D801C7
:1020F0008C91843021F0853009F01AC291C0D8014A
:102100001396ED91FC91149711968C91992787FD68
:102110009095BFEF803B9B0714F480EB9FEFAC01E1
:102120008135910514F040E550E05C834B83D80184
:1021300012968C91682F772767FD7095BFEF603BF3
:102140007B0714F460EB7FEF6135710514F060E5F7
:1021500070E07A8369838091A60384FF31C09F0178
:10216000307F8FEF493D58070CF4326048325105FB
:102170000CF03160AFEF693D7A070CF434606832DF
:1021800071050CF038601C821B821A821982F3FFE1
:1021900004C080E590E09A838983F2FF04C080EB5D
:1021A0009FEF9A838983F1FF04C080EB9FEF9C83AC
:1021B0008B83F0FF04C080E590E09C838B83F90162
:1021C00089819A8148EC50E0849F9001859F300D71
:1021D000949F300D1124309521953F4F8B819C8128
:1021E000BC01649FC001659F900D749F900D1124E8
:1021F0008058914C9C838B832058314C3A8329839F
:10220000D6011B968C931B978C811C968C931C97E4
:102210001D962C931D978A811E968C9380E182C116
:10222000D8011796ED91FC91189711968C919927EA
:1022300087FD9095BFEF8C399B0714F48CE99FEFD5
:102240007C01853691051CF084E6E82EF12CFA829B
:10225000E982D80112968C91992787FD9095BFEF5E
:102260008C399B0714F48CE99FEFBC0185369105EE
:1022700014F064E670E07C836B83D80113968C9134
:10228000992787FD9095BFEF8C399B0714F48CE953
:102290009FEFAC018536910514F044E650E05E8373
:1022A0004D83D80114967C90149715968C911597B0
:1022B000282F30E03A87298716968C91A82EBB24C8
:1022C000BC86AB868091A60384FF36C0F07FB9ED53
:1022D000EB16BFEFFB060CF4F16088E2E816F104A0
:1022E0000CF0F260AFEF693D7A070CF4F4606832ED
:1022F00071050CF0F8601A8219821C821B82D801C9
:1023000017966D917C91189773FF04C084E690E056
:102310009C838B8372FF04C08CE99FEF9C838B832B
:1023200070FF04C08CE99FEF9A83898371FF04C01A
:1023300084E690E09A83898369817A81AB81BC814C
:1023400080EA90E0489F4001499F900C589F900C74
:102350001124E090A603F090A7030091A803109128
:10236000A903E2FE0EC0213431050CF0F06421E433
:10237000A216B1040CF0F0621C861B861A86198620
:1023800053C0C70181709070892BE1F02F57304006
:10239000A5014F575040C9019695982F88279795CA
:1023A0008795220F331F821B930B9A878987CA0157
:1023B0009695982F882797958795440F551F841BCE
:1023C000950B20C0C90116E0880F991F1A95E1F7F7
:1023D000821B930B9A87898781589E4324F080E85B
:1023E0009EE39A878987C50156E0880F991F5A9501
:1023F000E1F78A199B099C878B8781589E4324F0BB
:1024000080E89EE39C878B87E1FE0EC089859A85D4
:10241000909581959F4F9A8789878B859C8590950C
:1024200081959F4F9C878B87E3FE04C01C861B868B
:102430001A86198680EA90E09C01629FC001639F22
:10244000900D729F900D11248058914C9A8389832E
:1024500080E69FEFBC01A69FC001A79F900DB69F8D
:10246000900D11248058914C9C838B83C40180581B
:10247000914C9E838D83272D332727FD30957FEF49
:102480002C39370714F42CE93FEFA9012536310523
:1024900014F044E650E080E69FEF489F9001499F8A
:1024A000300D589F300D11242058314C38872F8320
:1024B00049855A854058514C5A8749876B857C8598
:1024C0006058714C7C876B878981D6011B968C93F1
:1024D0001B978A811C968C931C978B811D968C93DD
:1024E0001D978C811E968C931E978D811F968C93C1
:1024F0001F978E8150968C93509751962C9351979D
:10250000888552968C93529753964C9353978A850D
:1025100054968C93549755966C9355978C855696F4
:102520008C9380E0BF010E94B712F601878B908FD9
:102530002C960FB6F894DEBF0FBECDBFCF91DF91C2
:102540001F910F91FF90EF90DF90CF90BF90AF90D1
:102550009F908F907F900895FC0181E2DF011D9292
:102560008A95E9F7CF010A960E94F40E0895882310
:1025700021F0803109F031C018C040E050E082E322
:1025800098E0FC0125913491FC013296A591B4911B
:102590002115310521F1109711F126233723232B23
:1025A00011F04A2B5B2B0496ECCF40E050E086E61E
:1025B00098E0FC0125913491FC013296A591B491EB
:1025C0002115310561F0109751F026233723232B75
:1025D00011F04A2B5B2B0496ECCF40E050E0CA018F
:1025E00008958AB1807F8AB98BB1807F8BB9249A94
:1025F0002C980895EF92FF920F931F93CF93DF9340
:1026000079011FB7813039F0813050F0823069F0A4
:10261000833051F50FC0E7E5FBE1CFE2DBE10EC00F
:10262000ECEEFAE1C4ECDAE109C0E2ECFBE1CAE964
:10263000DBE104C0EDE2FCE1C5E0DCE1F894CB01B4
:10264000642F0995C701602FFE010995282F30E0FE
:102650001FBF2F3F310541F02E3F310529F0E0E447
:10266000F1E03197F1F701C080E0DF91CF911F9148
:102670000F91FF90EF9008950F931F93DF93CF93E7
:1026800000D000D00F92CDB7DEB71982BE016F5FC8
:102690007F4F41E050E09E012E5F3F4F04E00E94DB
:1026A000FA12882319F420E030E05CC0833009F08E
:1026B00054C04A812B8130E0942F80E08C01022BA2
:1026C000132B8DB79EB70C970FB6F8949EBF0FBE15
:1026D0008DBFEDB7FEB7319687E691E0ADB7BEB7D7
:1026E00012969C938E9311971383028383E090E05C
:1026F0009583848346831782318720878C818287E4
:1027000013860E94361D8DB79EB70C960FB6F894AF
:102710009EBF0FBE8DBF812F99278F70907088301C
:102720009105A9F08930910530F48230910561F06E
:10273000059799F406C08930910591F00B9769F4DB
:102740000FC021E030E00EC025E030E00BC00052A9
:10275000184031F423E030E005C024E030E002C04E
:1027600022E030E0C9010F900F900F900F900F9072
:10277000CF91DF911F910F910895EFEDF2E0E80FF7
:10278000F11D6083089589E891E008958F929F92EA
:10279000AF92BF92CF92DF92FF920F931F93DF937E
:1027A000CF9300D000D00F92CDB7DEB7F82EE82F30
:1027B000F0E0E352FD4F108210E090E9892E91E0A5
:1027C000992E82E0A82EB12CAC0EBD1E6E0108948D
:1027D000C11CD11C15C0F4013197F1F70197D9F74D
:1027E00019828F2DB60141E050E0950104E00E946E
:1027F000FA12833041F01F5F1F3011F480E004C0F3
:102800008CE291E0E8CF81E00F900F900F900F9055
:102810000F90CF91DF911F910F91FF90DF90CF909C
:10282000BF90AF909F908F900895982F611571057C
:1028300059F089E0989FF0011124DB01E455FC4F29
:1028400001900D928150E1F789E0989FC001112419
:10285000DC01A254BC4FFC01E455FC4F89E001901F
:102860000D928150E1F7089599E0899FB0011124FC
:10287000CB0184559C4F62547C4F49E050E00E944C
:10288000121D08950F931F93DF93CF9300D000D0B4
:10289000CDB7DEB7182F83E08093710380E8809373
:1028A000720381E08093730384E793E060E870E053
:1028B00040E250E00E94281D812F61E773E043E26F
:1028C00050E09E012F5F3F4F04E00E94FA128130DA
:1028D00011F08FEF01C080E00F900F900F900F90DC
:1028E000CF91DF911F910F9108950F93DF93CF93B5
:1028F00000D000D0CDB7DEB7082F83E080937103FE
:1029000080EC809372038BE18093730320E030E0CE
:10291000662311F021E030E084E793E0B90140E262
:1029200050E00E94281D802F61E773E043E250E0F1
:102930009E012F5F3F4F04E00E94FA12813011F098
:102940008FEF01C080E00F900F900F900F90CF910C
:10295000DF910F910895DF92EF92FF920F931F93F3
:10296000DF93CF93CDB7DEB727970FB6F894DEBFCE
:102970000FBECDBFD82E1092710361E773E041E026
:1029800050E09E012F5F3F4F03E00E94FA12833018
:1029900039F0ED2DF0E0E352FD4F85E0808393C0E8
:1029A00080911201823048F08091A203883048F46F
:1029B000863060F4843098F00EC08091A203843099
:1029C00018F080E197E209C0833019F480E797E1BD
:1029D00004C0823021F488E893E10197F1F78B81FC
:1029E000982F80FF0BC0ED2DF0E0E352FD4F80816A
:1029F000882309F0A4C085E08083A1C0ED2DF0E01C
:102A0000E352FD4F1082ED2CFF24870103521D4F2E
:102A1000F8018081833071F1843030F48130B1F17C
:102A2000823009F040C018C08430E9F08530D9F513
:102A30008D2D0E944214882341F08D2D0E94421456
:102A4000882389F1F80110822EC0F701E152FD4F71
:102A500080818823A9F020C08D2D61E00E9475142B
:102A6000882309F51DC08D2D60E00E947514882310
:102A7000D1F40AC0F701E152FD4F8081882399F417
:102A80008D2D60E00E94751481E00BC0F701E152CA
:102A9000FD4F8081882339F08D2D61E00E947514EF
:102AA00083E0F801808381E0809371038D2D61E7DD
:102AB00073E041E050E09E012C5F3F4F04E00E9434
:102AC000FA12843011F08FEF2CC04C812D815E8181
:102AD0006F81F70133E0EE0FFF1F3A95E1F7EE0D3E
:102AE000FF1DE455FC4F8083942F80E030E0822B63
:102AF000932B9483838351836283503811F481E84C
:102B00008183F70123E0EE0FFF1F2A95E1F7EE0D19
:102B1000FF1DE455FC4F8281803811F481E88283E7
:102B200080E027960FB6F894DEBF0FBECDBFCF91E1
:102B3000DF911F910F91FF90EF90DF90089591FD2D
:102B40005DCF61CF0E94AB140895CF92DF92FF92C8
:102B50000F931F93CF93DF93FB0190E0DC0133E0F1
:102B6000AA0FBB1F3A95E1F7A80FB91FA455BC4F98
:102B700025E02C93318120E0408150E0242B352B3F
:102B800018963C932E931797328163817481F58058
:102B9000268115962C931597278116962C931697B8
:102BA00021EEC22E22E0D22EC80ED91EF6012081BF
:102BB000FC01EB51FD4FEC01C951DD4FAC01475118
:102BC0005D4F8C0105511D4F2223B1F08081381BD0
:102BD00011963C9311978881681B12966C931297FB
:102BE000FA018081781B13967C931397F8018081FA
:102BF000F81A1496FC9214C030836883FA0170832B
:102C0000F801F08211961C92119712961C9212975D
:102C100013961C92139714961C9281E0F601808300
:102C2000DF91CF911F910F91FF90DF90CF9008958A
:102C3000E1EEF2E0E80FF11D10820895E3EEF2E01C
:102C4000E80FF11D6083089587E991E0089585EA12
:102C500091E008950F931F93DF93CF93CDB7DEB725
:102C600028970FB6F894DEBF0FBECDBF182F84E5AE
:102C700089831A821B82812F9E012F5F3F4FB901EA
:102C800043E050E008E00E94FA12883011F53D81DF
:102C900089819A8189279B8189279C81892783271C
:102CA0002E81822798859817A1F4812F90E0FC014E
:102CB00043E0EE0FFF1F4A95E1F7E80FF91FE455D7
:102CC000FC4F86E08083318322838F81838380E081
:102CD00001C081E028960FB6F894DEBF0FBECDBFCD
:102CE000CF91DF911F910F9108950E942A160895A8
:102CF000EF92FF920F931F93DF93CF93CDB7DEB781
:102D000028970FB6F894DEBF0FBECDBF182F80E412
:102D1000898383E08A831B82E12FF0E0ED51FD4F30
:102D20008081882311F081E08B83812F7E010894BC
:102D3000E11CF11CB70143E050E0970108E00E945C
:102D4000FA12883011F081E005C0812FB7010E948E
:102D5000A51580E028960FB6F894DEBF0FBECDBF54
:102D6000CF91DF911F910F91FF90EF900895E82F81
:102D7000F0E0EF51FD4F10820E94781690E088231A
:102D800009F491E0892F08950E9478160895982FEC
:102D90006115710559F089E0989FF0011124DB015C
:102DA000E455FC4F01900D928150E1F7089599E0B0
:102DB000899FB0011124CB0184559C4F62547C4FF4
:102DC00049E050E00E94121D0895DF93CF930F92C7
:102DD000CDB7DEB789838091C80085FFFCCF89819C
:102DE0008093CE0080E090E00F90CF91DF91089526
:102DF000FC018091C80085FFFCCF80818093CE00CC
:102E0000089588E08093C90086E08093CA001092FC
:102E1000CD0080E18093CC0083EB91E09093D303CD
:102E20008093D20308950E94400AF894E0E0F0E015
:102E300009940895F8940E94400A80E49CE901975F
:102E4000F1F7F894E0E0F8E309940895E9E9F3E094
:102E500020E030E01AC081913827032E0294902D93
:102E60009F709327832F8025880F807E9827802D41
:102E70008327807F8695032E000C881F3695369514
:102E800036953F7138273227292F83E0EA3AF80731
:102E900011F731832083CF01419760E070E043E177
:102EA00050E00E945E1F089589E993E060E070E0C1
:102EB00043E150E00E944E1F8091990390919A0344
:102EC0008D5E9E4F09F02AC04091AA035091AB033A
:102ED000E9E9F3E020E030E01AC081913827032EC1
:102EE0000294802D8F708327932F9025990F907EC9
:102EF0008927902D9327907F9695032E000C991F7C
:102F00003695369536953F7139273227282F83E03D
:102F1000EA3AF80711F74217530789F083E1E9E924
:102F2000F3E0DF011D928A95E9F78DEE9EEF909315
:102F30009A03809399030E949F180E9426170E946B
:102F4000BC040895CF93DF93AC01FC01108281E0B3
:102F5000818380E1828331968F5F8431D9F726E0C7
:102F600006C0FA01E20FF11D888180832F5F265091
:102F7000822F90E02A5FEC01CC0FDD1FCC0FDD1F0C
:102F8000C80FD91FCF53DE4F89819A81AB81BC8195
:102F90000097A105B10529F7822FDF91CF91089500
:102FA000CF93DF93982FDB016115710509F46CC095
:102FB0008031F9F0813128F4882361F0813039F4CF
:102FC0000DC08231F1F08231C0F08331F1F0E1ECDB
:102FD000F1E04CC08C918093A10352C0CBE9D3E0C7
:102FE000FB0186E0019009928150E1F70E942617CB
:102FF00047C08C918093A20343C08C918093A3031C
:103000003FC08C918093A4033BC08C918093A50317
:1030100037C080813596981749F58C91882369F0DF
:103020008091A6039091A703A091A803B091A90352
:10303000282B392B4A2B5B2B10C0209530954095BF
:1030400050958091A6039091A703A091A803B091F9
:10305000A903282339234A235B232093A603309313
:10306000A7034093A8035093A9030AC0218132818A
:1030700043815481211531054105510551F604C0A4
:103080000E94261781E001C080E0DF91CF91089572
:10309000CF93DF93982FEB018031E9F0813128F451
:1030A000882361F0813039F40CC08231E1F0823143
:1030B000B8F08331D9F0E1ECF1E034C08091A103A4
:1030C0000CC0DB01EBE9F3E086E001900D9281504A
:1030D000E1F786E031C08091A203888381E02CC0B3
:1030E0008091A303FACF8091A403F7CF8091A50329
:1030F000F4CF808135969817A9F460E08091A603FB
:103100009091A703A091A803B091A9032823392384
:103110004A235B23211531054105510509F061E082
:103120006883DCCF218132814381548121153105AF
:1031300041055105F1F680E0DF91CF910895ABE9AB
:10314000B3E0EFEDF1E086E001900D928150E1F700
:103150001092A10385E08093A2038093A303809340
:10316000A4038093A5030895FA018091ED028230B3
:1031700019F020E030E00AC08FEE92E09183808366
:103180001092ED028091EE02282F30E0C9010895DF
:103190001F93122F81E08093ED026FEE72E0CB015E
:1031A000BA01422F532F0E941F1D1093EE0280E0A0
:1031B0001F9108956F927F928F929F92AF92BF92CC
:1031C000CF92DF92EF92FF920F931F93DF93CF93F3
:1031D000CDB7DEB7C054D0400FB6F894DEBF0FBEF7
:1031E000CDBFFC012091ED02213031F0213008F4F7
:1031F0005BC1223029F458C18091EE02882319F472
:103200001092ED0251C19091EF02973009F49AC0EB
:10321000983098F4933009F45CC0943038F49130CD
:1032200009F44FC0923009F03CC13CC0953009F41C
:1032300072C0963008F07AC059C0913F09F420C19D
:10324000923F50F4913809F48BC0903F09F4EBC0E1
:10325000903809F026C10EC09E3F49F09F3F20F4F0
:10326000923F09F01EC106C10E941A171AC10E949E
:10327000131717C18091F002843008F012C14091F9
:10328000F10262EF72E050E09B010DE30E94FA123E
:103290008093EE028091EE028093F1028091EE0223
:1032A0008D5F0CC08091F00261EF72E04EE30E94EE
:1032B00048188093EE028091EE028E5F8093EE02BA
:1032C000F0C08091F00261EF72E00E94D01782E0BE
:1032D000F5CF309709F4E5C00190F081E02D3097EB
:1032E00009F4DFC08091F0020995DBC060912902EA
:1032F00070912A0280EF92E00E942F1DA091290276
:10330000B0912A02FD0101900020E9F7EA1BEF5F6E
:10331000E093EE02C6C080EF92E062EA78E00E949D
:10332000021D82EA98E00E94091DC7CFE091F002D9
:10333000E43008F0B6C0F0E0E45DFD4F808180939A
:10334000F1020CC0309751F00280F381E02D3097EC
:1033500029F08091F0026091F102099583E0AECFEF
:10336000DE011196EFEEF2E080E401900D928150C3
:10337000E1F780EF92E06FEF70E04FE350E00E94E2
:10338000281D91E0E92EF12C81E0A82EB12C3E0100
:103390000894611C711C3DC08DE3E816F1040CF02B
:1033A00040C050815F3FE9F14181128183E090E0AC
:1033B000E80EF91E3396442379F1C12EDD249501E0
:1033C0002F5F3F4FC9018C0D9D1D803491054CF539
:1033D000842E9924B3016E0D7F1D21513D4F852F01
:1033E000A401012F0E94FA1290E0F501E151FD4F76
:1033F0001083009711F4106804C08C159D0514F417
:10340000106410830894C11CD11CAC0CBD1CE80CCA
:10341000F91CF301EE0DFF1D90E4E916F1040CF424
:10342000BBCF8FE34BCF8FEF8093F00280E8809388
:10343000F10282E08093F2022093F30283E0809312
:10344000F40284E08093F50285E08093F60286E042
:103450008093F70287E08093F80281E88093F90275
:1034600082EF8093FA0281EF8093FB029093FC023B
:103470008EE024CF80EF92E00E94A2178F5F1ECFD4
:103480002093EE02309769F00480F581E02D3097AB
:1034900041F01091EE0280EF92E00995180F109321
:1034A000EE0282E08093ED02C05CDF4F0FB6F8942D
:1034B000DEBF0FBECDBFCF91DF911F910F91FF9067
:1034C000EF90DF90CF90BF90AF909F908F907F90C4
:1034D0006F900895FC01AFE2B3E083E0AD36B8072A
:1034E00019F41D921C92089584918C9311961C924C
:1034F0001197882319F031961296EFCF0895109204
:1035000080008DE08093810008959C0180916F037D
:103510009091700382179307E9F030937003209322
:103520006F031092850010928400B901882777FDFF
:103530008095982F29E03DE340E050E00E94A61CD2
:1035400028EE33E040E050E00E94C51C3093890033
:10355000209388000895B19902C080E0089582E028
:1035600086BB81E0089582E084BD85E085BD089535
:1035700016BC8AEF87BD0895A99902C080E008951E
:1035800082E085BB81E00895AA27BB27E82FF92FA9
:10359000222741E088272395D9F04899FCCF0FC016
:1035A000522F2BE42395BAF04899FCCF321B441FCD
:1035B00008F005C0681749F08395419341E03BE46A
:1035C000339542F0489BFCCFEBCF8FEF8A9508955F
:1035D000882309F08FEF0895E82FF92F6623F1F182
:1035E000662371F16A955191B0E8352F3B2399F428
:1035F0000000509A44E14A95F1F70000509842E0EB
:103600004A95F1F7B69561F3000000000000000054
:1036100000000000EACF509A44E04A95F1F700001C
:10362000000050984DE04A95F1F700000000B69573
:10363000B9F2000000000000000000000000D5CF3B
:10364000000000000000000000000000000000007A
:10365000509A44E04A95F1F7000050980895AA273F
:10366000BB27E82FF92F222741E088272395D9F09F
:103670004A99FCCF0FC0522F2BE42395BAF04A99F8
:10368000FCCF321B441F08F005C0681749F0839532
:10369000419341E03BE4339542F04A9BFCCFEBCFB2
:1036A0008FEF8A950895882309F08FEF0895E82F0A
:1036B000F92F6623F1F1662371F16A955191B0E813
:1036C000352F3B2399F40000529A44E14A95F1F7D3
:1036D0000000529842E04A95F1F7B69561F3000078
:1036E00000000000000000000000EACF529A44E011
:1036F0004A95F1F70000000052984DE04A95F1F725
:1037000000000000B695B9F20000000000000000C3
:1037100000000000D5CF0000000000000000000005
:10372000000000000000529A44E04A95F1F70000C2
:1037300052980895AA27BB27E82FF92F222741E0A6
:1037400088272395D9F04999FCCF0FC0522F2BE43D
:103750002395BAF04999FCCF321B441F08F005C0ED
:10376000681749F08395419341E03BE4339542F07B
:10377000499BFCCFEBCF8FEF8A950895882309F002
:103780008FEF0895E82FF92F6623F1F1662371F189
:103790006A955191B0E8352F3B2399F40000519A76
:1037A00044E14A95F1F70000519842E04A95F1F75B
:1037B000B69561F30000000000000000000000006A
:1037C000EACF519A44E04A95F1F700000000519881
:1037D0004DE04A95F1F700000000B695B9F20000FF
:1037E00000000000000000000000D5CF0000000035
:1037F000000000000000000000000000519A44E0BA
:103800004A95F1F7000051980895AA27BB27E82FA1
:10381000F92F222741E088272395D9F04B99FCCF37
:103820000FC0522F2BE42395BAF04B99FCCF321BDB
:10383000441F08F005C0681749F08395419341E0A3
:103840003BE4339542F04B9BFCCFEBCF8FEF8A9557
:103850000895882309F08FEF0895E82FF92F662344
:10386000F1F1662371F16A955191B0E8352F3B2350
:1038700099F40000539A44E14A95F1F700005398F7
:1038800042E04A95F1F7B69561F3000000000000B0
:10389000000000000000EACF539A44E04A95F1F797
:1038A0000000000053984DE04A95F1F70000000039
:1038B000B695B9F200000000000000000000000012
:1038C000D5CF000000000000000000000000000054
:1038D0000000539A44E04A95F1F700005398089588
:1038E0008DEA9EED9093D5038093D4030895809143
:1038F000D4039091D5038D5A9E4D11F480E0089524
:103900008FEF0895482F8051843210F48C5F089512
:10391000842F80548C3018F080E090E004C0842F15
:1039200086500895C901FC01E953F74FE4919C01C9
:103930002E5F3F4FE41729F48853974FFC01849181
:1039400008952839310571F788E30895629FD00101
:10395000739FF001829FE00DF11D649FE00DF11D4A
:10396000929FF00D839FF00D749FF00D659FF00DF9
:103970009927729FB00DE11DF91F639FB00DE11DE6
:10398000F91FBD01CF011124089597FB092E0526CB
:103990000ED057FD04D014D00AD0001C38F4509536
:1039A0004095309521953F4F4F4F5F4F0895F6F763
:1039B00090958095709561957F4F8F4F9F4F08959B
:1039C000A1E21A2EAA1BBB1BFD010DC0AA1FBB1F23
:1039D000EE1FFF1FA217B307E407F50720F0A21B95
:1039E000B30BE40BF50B661F771F881F991F1A9402
:1039F00069F760957095809590959B01AC01BD012C
:103A0000CF010895FB01DC0105900D920020E1F744
:103A10000895FC0105900020E9F7809590958E0FA0
:103A20009F1F0895FB01DC0104C08D910190801956
:103A300021F441505040C8F7881B990B0895FB01B1
:103A4000DC0102C001900D9241505040D8F708951A
:103A5000DC0101C06D9341505040E0F70895FB0137
:103A6000DC0101900D920020E1F70895A0E0B0E0A4
:103A7000ECE3FDE10C943020FE01359661917191EB
:103A80008091D2039091D303AF010E94711D2096C3
:103A9000E2E00C944C20A0E0B0E0E1E5FDE10C9404
:103AA0003020FE01359661917191A091D203B091C1
:103AB000D30313968C911397886013968C938091FF
:103AC000D2039091D303AF010E94711DE091D20304
:103AD000F091D3032381277F23832096E2E00C9487
:103AE0004C20ABE0B0E0E7E7FDE10C9420203C0186
:103AF0002B015A01FC0117821682838181FD03C0CC
:103B00006FEF7FEFC6C19AE0892E1E010894211C39
:103B1000311CF3012381F20123FD859123FF819163
:103B20002F01882309F4B2C1853239F423FD859130
:103B300023FF81912F01853229F490E0B3010E9487
:103B4000961FE7CF982FFF24EE249924FFE1FF155D
:103B5000D0F09B3269F09C3228F4903259F09332C5
:103B600091F40EC09D3249F0903369F441E024C0D5
:103B700052E0F52A84E0F82A28C098E0F92A25C006
:103B8000E0E1FE2A22C0F7FC29C0892F80538A3049
:103B900070F4F6FE05C0989C902C1124980E15C068
:103BA000E89CE02C1124E80EF0E2FF2A0EC09E32C1
:103BB00029F4F6FC6BC140E4F42A07C09C3619F4E2
:103BC00050E8F52A02C0983649F4F20123FD959198
:103BD00023FF91912F01992309F0B8CF892F8554A4
:103BE000833018F08052833038F444E050E0A40E63
:103BF000B51E5FE359830FC0933631F0933779F0E8
:103C0000933509F056C020C0F5018081898342E0D8
:103C100050E0A40EB51E610101E010E012C0F501F4
:103C2000C080D180F6FC03C06FEF7FEF02C0692D2A
:103C300070E042E050E0A40EB51EC6010E948B1F4A
:103C40008C015FE7F52214C0F501C080D180F6FC3D
:103C500003C06FEF7FEF02C0692D70E042E050E0DB
:103C6000A40EB51EC6010E94801F8C0150E8F52AE3
:103C7000F3FE07C01AC080E290E0B3010E94961FD5
:103C8000EA948E2D90E008171907A8F30EC0F601EC
:103C9000F7FC8591F7FE81916F0190E0B3010E94DE
:103CA000961FE110EA94015010400115110579F7B3
:103CB000EAC0943611F0993669F5F7FE08C0F501AF
:103CC000208131814281538184E090E00AC0F50176
:103CD000808191819C01442737FD4095542F82E0DB
:103CE00090E0A80EB91E9FE6F92257FF09C0509533
:103CF0004095309521953F4F4F4F5F4FE0E8FE2AAA
:103D0000CA01B901A1012AE030E00E94C21FD82EE9
:103D1000D21840C0953729F41F2D1F7E2AE030E0CD
:103D20001DC01F2D197F9F3661F0903720F4983504
:103D300009F0ACC00FC0903739F0983709F0A6C031
:103D400004C028E030E00AC0106114FD146020E1D6
:103D500030E004C014FD166020E132E017FF08C017
:103D6000F501608171818281938144E050E008C057
:103D7000F50180819181BC0180E090E042E050E05B
:103D8000A40EB51EA1010E94C21FD82ED2188FE723
:103D9000F82EF122F6FE0BC05EEFF522D91438F4AE
:103DA000F4FE07C0F2FC05C08FEEF82202C01D2D04
:103DB00001C0192DF4FE0DC0FE01ED0DF11D808135
:103DC000803319F499EEF92208C01F5FF2FE05C096
:103DD00003C08F2D867809F01F5F0F2DF3FC14C0F0
:103DE000F0FE0FC01E1510F09D2C0BC09D2C9E0CDC
:103DF000911A1E2D06C080E290E0B3010E94961F2A
:103E00001F5F1E15C0F304C01E1510F4E11A01C097
:103E1000EE2404FF0FC080E390E0B3010E94961FE0
:103E200002FF1DC001FD03C088E790E00EC088E5D9
:103E300090E00BC0802F867891F001FF02C08BE2EA
:103E400001C080E2F7FC8DE290E0B3010E94961F72
:103E500006C080E390E0B3010E94961F9A94D914A3
:103E6000C0F3DA94F101ED0DF11D808190E0B30112
:103E70000E94961FDD20A9F706C080E290E0B30102
:103E80000E94961FEA94EE20C1F743CEF3016681AB
:103E90007781CB012B96E2E10C943C20DC01CB0135
:103EA000FC01F999FECF06C0F2BDE1BDF89A31964A
:103EB00000B40D9241505040B8F70895DC01A40FB2
:103EC000B51F4150504048F0CB01840F951F2E91F3
:103ED0000E946F1F41505040D0F70895262FF99946
:103EE000FECF92BD81BDF89A019700B4021639F059
:103EF0001FBA20BD0FB6F894FA9AF99A0FBE08952A
:103F0000FC010590615070400110D8F780959095A4
:103F10008E0F9F1F0895FC016150704001900110A9
:103F2000D8F7809590958E0F9F1F08950F931F933C
:103F3000CF93DF938C01EB018B8181FF1BC082FF4C
:103F40000DC02E813F818C819D812817390764F433
:103F5000E881F9810193F983E88306C0E885F98552
:103F6000802F0995892B31F48E819F8101969F8343
:103F70008E8302C00FEF1FEFC801DF91CF911F9119
:103F80000F910895FA01AA27283051F1203181F1CB
:103F9000E8946F936E7F6E5F7F4F8F4F9F4FAF4F51
:103FA000B1E03ED0B4E03CD0670F781F891F9A1F64
:103FB000A11D680F791F8A1F911DA11D6A0F711D18
:103FC000811D911DA11D20D009F468943F912AE024
:103FD000269F11243019305D3193DEF6CF0108950C
:103FE000462F4770405D4193B3E00FD0C9F7F6CF3D
:103FF000462F4F70405D4A3318F0495D31FD405205
:10400000419302D0A9F7EACFB4E0A695979587959A
:1040100077956795BA95C9F7009761057105089579
:104020009B01AC010A2E0694579547953795279525
:10403000BA95C9F7620F731F841F951FA01D0895BD
:104040002F923F924F925F926F927F928F929F92A8
:10405000AF92BF92CF92DF92EF92FF920F931F9396
:10406000CF93DF93CDB7DEB7CA1BDB0B0FB6F89447
:10407000DEBF0FBECDBF09942A88398848885F8487
:104080006E847D848C849B84AA84B984C884DF80F8
:10409000EE80FD800C811B81AA81B981CE0FD11DDC
:1040A0000FB6F894DEBF0FBECDBFED010895F894B2
:0240B000FFCF40
:1040B20012011001000000409B2860006103010210
:1040C20003010106000158073B00031D0202E80438
:1040D200AC001000000029052605150094054000DB
:1040E2000000B418C8180000000000000000000022
:1040F20000000000000000000000000000000000BE
:1041020000000000000000000000E6041A05E904B7
:10411200FFFFFFFFFFFF0149643A2025303478207A
:1041220020202825643A2025303278202530327824
:104132002025303278290D0A00A215AB1434140060
:10414200001514BD13C613C4167816D7161816C751
:10415200161E16B71675162A16D7160000C71600B1
:1041620000B7160000000200000000E51600000083
:1041720000240200000023010000002504000000CA
:10418200320800000034100000000000000000307F
:10419200303030303172006100700068006E0065AE
:1041A200007400200074006500630068006E006FF8
:1041B200006C006F00670069006500730000003149
:1041C20000320033003400350036000000E5012FD4
:0C41D200030F02332E362E3100230200B2
:00000001FF
